:020000040000FA
:10000000021F3F022003FFFFFFFFFF02200BFFFF45
:10001000FFFFFF022013FFFFFFFFFF02201BFFFF78
:10002000FFFFFF022023FFFFFFFFFF02202BFFFF48
:10003000FFFFFF022033FFFFFFFFFF02203BFFFF18
:10004000FFFFFF022043FFFFFFFFFF02204BFFFFE8
:10005000FFFFFF022053FFFFFFFFFF02205BFFFFB8
:10006000FFFFFF022063FFFFFFFFFF02206BFFFF88
:10007000FFFFFF022073FFFFFFFFFF02207BFFFF58
:10008000FFFFFF022083FFFFFFFFFF02208BFFFF28
:10009000FFFF70DFFFFF040000000002000000C847
:1000A000030002030369A5020269A532730000017F
:1000B00000000000000400FFFFFFFFFFFFFFFF0440
:1000C00003090424035400650078006100730020D4
:1000D0000049006E0073007400720075006D0065C9
:1000E000006E007400730024035400490020004394
:1000F000004300320035003300310020005500532A
:10010000004200200043004400430000035F005F02
:100110000030005800000000000000000000000057
:1001200000000000000000000000000000000000CF
:100130000000000000303132333435363738394171
:100140004243444546331C881C881C881C881C90EC
:100150001C74F8121BCD900391E06015900302749B
:10016000FEF0900304744DF0A37405F07A011207B9
:100170001C7F01021D6C74F8121BCD74FF121EB699
:100180007E00801F851882851983E064FE700690CA
:1001900003877401F0851882851983E0F890038441
:1001A000E068F07901AA18AB191210E9E9700302AE
:1001B0000287851882851983E064EF70027E07E06C
:1001C000C0E0900387E0FA900385E0F8EA28F8E4BD
:1001D0003400F9740228F582740339F583D0E0F015
:1001E000900387E0609E14600E14602B14603B1433
:1001F0006051146067809E900384E4F085188285C6
:100200001983E0900386F0C394809003874003E451
:1002100080827402020194851882851983E090031C
:1002200082F09003877403020194851882851983F4
:10023000E0900383F0900386E060199003877404D4
:10024000020194900385E004F0F8900386E0686072
:10025000030201959003877405020194900385E4DD
:10026000F0900387F0900384E0F885188285198365
:10027000E0686003020195900382E0644D60030230
:1002800001951203BF8002EEF97401121E370201BC
:100290007174F7121BCD74FB121EB6EAFEEBFF75EC
:1002A00008047509007808121ED07402121F377AEC
:1002B000907B0079041218EB7402121E3712070E9D
:1002C000121F88E0687003A3E069701285188285A8
:1002D0001983E0F47003A3E0F4600302039A74044A
:1002E000121F2F1207708A088B09A808A909740227
:1002F000121F88E8F0A3E9F07404121F88E0600878
:1003000079011201510203B3851882851983E068CF
:100310007003A3E0697076851882851983E0F47014
:1003200003A3E0F470197402121F887410F0A37410
:1003300020F08518828519837410F0A37420F0755D
:1003400008017509007808121ED07402121F377A4E
:10035000247B0812196F7402121E3775080478087E
:10036000121ED07402121F377A907B007904121883
:10037000EB7402121E3712070E121F88E06870031A
:10038000A3E069700479028006790480027903127F
:1003900001518E828F83741E80058E828F83E4F0DC
:1003A00012070E121F88E0687003A3E069700479D9
:1003B00001800279007405121E377F02021D6C74E1
:1003C000ED121BCD74F8121EB6900307E0FD9003EA
:1003D00006E0FCFAEDF8E4C8F9EA28FEE93408FF83
:1003E000751001750B00750A068E088F0974027866
:1003F00008121F1CC39508F8E49509F9740228F542
:100400000E740339F50F8E088F0974097808121FCE
:100410004EE508F511EE2410F508E43FF509EEF578
:100420000CEF5401F50D900383E014605914700330
:100430000204FB14700302057614601024FE70039E
:100440000206311470030206E10206F1750A03790F
:100450004E1213BD9003071207047402F0A37440F8
:100460001207027408120702F0A3F07418C394076D
:1004700004F510AA10A90B12071CA90A7408121E71
:10048000377F0C021D6C750A04794E1213BDEE45C0
:100490000D7005A9111219D5C3EE9425EF940850DB
:1004A0003CC3E5089424E50994084031E50E249600
:1004B000F8E50F3420F988828983E0701BA3AA82B3
:1004C000AB83E070139003887401F0888289837491
:1004D000A5F08A828B838004900388E4F07508106D
:1004E0007509007808121ED07C087D03EEFAEFFB38
:1004F00012196F7402121E37020473750A05E51192
:10050000C394794006750B0102047375124075138C
:10051000007812121ED07C097D037402780C121F21
:100520001CAA0CAB0DA9111218EB7402121E379005
:100530000307E0A3F0900306E0A3F0751043C3EEB9
:100540009425EF94084003020473C3E5089424E55E
:100550000994085003020473900388E070030204B6
:1005600073E50E2497F8E50F3420F988828983E437
:10057000F0A3F00204737508047509007808121ED0
:10058000D07402121F377A907B0079041218EB7432
:1005900002121E377402121F88E0F8A3E0F98518D2
:1005A00082851983E0687003A3E069851882851944
:1005B00083700BE0F47003A3E0F470578009E0F45B
:1005C0007003A3E0F4700D8518828519837410F010
:1005D000A37420F012070E121F88E8F0A3E9F0754B
:1005E00008017808121ED07402121F377A247B0883
:1005F00012196F7402121E377508047808121ED083
:100600007402121F377A907B0079041218EB74027F
:10061000121E3712070E121F88E0687003A3E069EC
:100620007006750A01020473750A02750B0702044D
:10063000739003D6E0600764026003020473EDFF69
:100640007A01790012071CE060030206D5800312CC
:10065000118512116CE970F77404121F881206F6E6
:100660007404121F887808121F6C85080C85090D08
:10067000850A0E850B0F9003C2780C121EF67404C7
:10068000121F88780C121F5DE5084509450A450BC5
:1006900070CE8EC2E5C554E04FF5C57404121F88B4
:1006A0001206F67404121F887808121F6C85080C55
:1006B00085090D850A0E850B0F9003C2780C121E5A
:1006C000F67404121F88780C121F5DE50845094571
:1006D0000A450B70CE7A01790012071C79080204D2
:1006E0007CEC900391F07003020473750A09020414
:1006F00073790602047CE4F0A37426F0A3E4F0A36B
:10070000F022F0A3E4F0A3F0A3F0A3F0A322851855
:1007100082851983E0F8A3E0F974022274F8121BB1
:10072000CDEAFE900305E0D2E7F0E9A3F0EE9003F6
:1007300003F08E0874042AFE7C028004E062080C38
:10074000ECFA3395E0FB74022AF58274033BF583DF
:10075000EEF8C3EA98EB9400A2D265D03340DDE511
:1007600008F074012AF97A027B0312112702017141
:1007700074E9121BCD7582007583FE121E198A164C
:100780008B177514007515008A828B83E4F0900333
:10079000D6E07006D2AAD2AF800464027005790058
:1007A000120151750C00750D20750E00750F00902B
:1007B00003D6E0600464027015121185120176E917
:1007C000F874096860030208AC7900120151E06412
:1007D000027007A29240030208877508007509029B
:1007E0007808121ED07402121F37850C08850D0977
:1007F000AA08E5095407FB850E0A850F0B740B78D0
:1008000008121E87A9081218EB7402121E377E0008
:100810007F009003CAC0828E10EFF5113395E0F58A
:1008200012F513850C08850D09850E0A850F0B78C6
:10083000087910121F099003C67808121EF67583F6
:1008400003D0827808121DFA501D851882851983FD
:10085000E5822EF582E5833FF583E0F9AA14AB1516
:100860001208DB8A148B150EEE70010FC3EF940291
:1008700040A09003CE780C121EF69003D2780C1292
:100880001DFA40030207AF7900AA14AB151208DB6A
:1008900079001208DB8B159003D6E07004C2AFC25A
:1008A000AAEA451570277AA57BA58021E870030286
:1008B00007CE74066870030207CE740768700302DF
:1008C00007CE8516828517837401F080BA75820081
:1008D000758302121E197F10021D6CC008C0097CAE
:1008E000088A088B09740F7808121F4EE508F8EA89
:1008F00025E0FAEB33FBE9A2E7500474014AFAE879
:10090000A2E0500874216AFA74106BFBE9C333F952
:100910001CEC70CDD009D00822C082C083120F33E6
:1009200060030209F0A3E0F8A3E060030209F0A36A
:10093000E064027002A3E060030209F09003B8E0F3
:100940002480600914604F14605C0209F0E86003C1
:100950000209F09003B2E060047801800278009010
:1009600003C0E8F0A3E4F09003B1E0600A9003C094
:10097000E04402F0A3E4F09003A6E0640460149065
:1009800003B374C0F0A37403F0A3E4F0A3740212E1
:100990000F95F0020E6E90039FE064047052900376
:1009A000C0E4F0A380D0E8547FFA90039FE0640491
:1009B000703EEAC394065038749F2AF582E43403EB
:1009C000F583E854806018A3A3A3A3A3A3A3E064C2
:1009D0000370047801800278009003C0E88094E5F9
:1009E00082240CF58250020583E0640370E980E301
:1009F0009003A67404809B74F8121BCDE9FE90034B
:100A0000BE120F366003020AD990039FE0640460AF
:100A10000B9003BC120F366003020AD99003B8E0B2
:100A2000541F6009146030146020020AD99003BA80
:100A3000E064017022EE9003B1F060047905800259
:100A400079067A00121BCB020ADF9003BCE0547FC8
:100A5000FA9003BAE060057900020AE1EAC394065D
:100A60005077EA90620EF0749F2AF8E43403F9900C
:100A700003BCE05480602EEE600474108002744069
:100A8000906211F0EE60047B0380027B00EB8882B1
:100A90008983A3A3A3A3A3A3A3F0EE600479088092
:100AA0002F7907802BEE60047B2080027B80EB9007
:100AB0006214F0EE60047B0380027B00E8240CF5F6
:100AC00082E439F583EBF0EE6004790A800279095B
:100AD000121BCB90620EE480059003A67404F0799B
:100AE000017F01021D6C79001209F7E97003121BE6
:100AF000BA2279011209F7E97003121BC922C082D8
:100B0000C0839003BC120F367015A3120F36700FFE
:100B10009003BA120CD95480FAE9FBEA4B600790B3
:100B200003A67404801AE8906200F090039F6009A5
:100B3000E06402700C74038007E0640370037402C5
:100B4000F0020E6E74F5121BCD9003BAE0FAA3E02A
:100B50001460081460101460398057121754120C76
:100B6000B6A37B8080417900121776120CB67B8089
:100B7000E92402F9E43AFA121E6DFC1919E0FAA30D
:100B8000E92403F9E43AFA121E6DF9ECA3F0A3E9A3
:100B9000801CEAF91217E49003B3EAF0A3EBF0A388
:100BA000E4120CC5A37B00121E6DA3F0A3E4F002B7
:100BB0000C709003B3E4F0A3F0A3F0750B00900465
:100BC0007DE0FAA3E0FB020C4E850B08750900746A
:100BD000037808121F1CEA2508F8EB3509F9900381
:100BE000BA120CCFE493C0E0EFFCD0E06C705DA3D0
:100BF000E4936E70579003BC120CCFA3A3E493C090
:100C0000E0EFFCD0E06C704488828983A3A3A3E466
:100C1000936E703888828983A3A3A3A3E493F50815
:100C2000740193F5099003B3E508F0A3E509F0A377
:100C30007480F088828983A3A3A3A3A3A3E493F879
:100C4000740193F99003B6E8F0A3E9F0050B900462
:100C50007F120CD9C39AF508E99BF509740378084B
:100C6000121F4EC3E50B9508E495095003020BC90A
:100C70009003B3E0FCA3E0FDA3E0FEEC4D4E900337
:100C8000A6700474048029E0640460259003BEE02B
:100C9000FAA3E0FB9003B6E0F8A3E0F9C3EA98EB0F
:100CA0009950089003B6EAF0A3EBF09003A6740104
:100CB000F07F04021D6C9003B3EAF0A3EBF0A37481
:100CC00080120CC522F09003B3E0F9A3E0FA22E011
:100CD000FEA3E0FF8882898322E0F8A3E0F9E822FE
:100CE00074EE121BCDEA2404F8E43BF98808890964
:100CF0008882F583E4936025900481120CD9FEE983
:100D0000FF8007EE2404FE50010F8E828F83E49350
:100D1000F8740193F9EA687002EB6970E6750B00EC
:100D2000803F9062147490F07410120E3570037549
:100D30000A408E828F83A3A3A3E493550E6006E539
:100D40000AD2E0F50AE50A906215F0EA906213F023
:100D5000EC240CF582E43DF583E4F090620EF0059E
:100D60000B850882850983E493F8E50BC39840035B
:100D7000020E307A0079051216E78A0C8B0DEA45CF
:100D80000D60DCEA2402F8E4350DF9881089118839
:100D900082F583E493540FF51290620EF0750A0009
:100DA0008A828B83A3A3A3A3E4932407F50EA3E471
:100DB000933400F50F7403780E121F4EAA0EA8127A
:100DC000749F28F8E43403F9E8FCE9FD750E017519
:100DD0000F00E512780E121F1CE50EF50EE50C242F
:100DE00003F8E4350DF9851082851183E493A2E7B9
:100DF0004003020D229062117448F07408120E35FF
:100E00007003750A408E828F83A3A3E493550E600E
:100E100006E50AD2E0F50AE50A906212F0EA90626D
:100E200010F08C828D83A3A3A3A3A3A3A3020D59C7
:100E30007F0B021D6CF088828983E4935403640164
:100E400022C082C083120F337010A3120F36700AB3
:100E5000A3E064017002A3E060079003A67404801D
:100E60000C9003B374A0F0A37403120F8BF0D08323
:100E7000D0822274F3121BCD90039FE064026014B1
:100E80009003BC120F36700CA3120F36700690033D
:100E9000BBE060099003A67404F0020F2E7A00797B
:100EA00001121BCB9003BAE0606F7A00F91217763B
:100EB0008A0A8B0BEA450B605890039F7404F090EC
:100EC00003BAE09003A0F0750800850A82850B83C1
:100ED000A3A3A3A3E493F8E508C398504AA8087411
:100EE000A128F8E43403F9E8FEE9FF8E828F83E459
:100EF000F07A0079041216E78A828B83A3A3A3E415
:100F000093F88E828F83E06870E7120CE00508800A
:100F1000B99003A67404F0800E9003A0F090039F94
:100F20007403F0F91216677A007902121BCB7F0660
:100F3000021D6C9003BAE0F8A3E0F9E8492274F6C8
:100F4000121BCD90039FE0640470199003B8E06415
:100F5000817011120F33700C9003BEE064017002B7
:100F6000A3E060079003A67404801A9003BCE024F9
:100F7000A1F508A3E03403F5099003B3E508F0A355
:100F8000E509120F8BF07F03021D6CF0A3E4F0A3C0
:100F900004120F9522F0A3E4F09003A6042274F744
:100FA000121BCD90039FE0640470649003B8E0646A
:100FB00001705C9003BE120F3670549003BAE0FBD0
:100FC0009003BCE0FA9003A0E0F91217AE8A088BF8
:100FD00009AE08AF09EE4F60369003BCE0FA790322
:100FE000121BCB9003BAE0C0E09003BCE024A1F850
:100FF000A3E03403F988828983D0E0F0EEFAEFFBB6
:10100000120CE09003BCE0FA7904121BCB8006902E
:1010100003A67404F07F02021D6CC082C0838003AB
:10102000121A31A2E840F9A823E854046009782391
:10103000E654FBF612140EA823E854106009782336
:10104000E654EFF612142FA823E8A2E05005782307
:1010500054FCF690620EE0FA7404F0906214E0A280
:10106000E05039A9A8C2AF906216E0F8A3E0E8FB0F
:10107000E9A2E792AF8017906228E0C0E090039366
:10108000E0F812111CD0E0F0900393E004F0EBFDC7
:1010900074FF2DFB0470E0906214E4F0EA90620E9D
:1010A000F0E0FC7404F0906211E0A2E040319003A3
:1010B00095E0F8900394E06860257A4090039412DC
:1010C000115FE0906228F0900394E004F008900330
:1010D00095E06860041AEA70E39062117401F0EC24
:1010E00090620EF0D083D0822274F8121BCDE9FEFC
:1010F0007900801212111CE08A828B83F090039297
:10110000E00412115409900392E0F8900393E06810
:101110006005E9C39E40DD7F01021D6C748528F5E2
:1011200082E43404F58322C082C083E9FC80188AFB
:10113000828B83E0C0E090039512115FD0E0121122
:1011400054900395E004F0ECF874FF28FC0470DF81
:1011500079018090F08A828B83A3AA82AB8322E0FC
:10116000F8748528F582E43405F58322C082C083B3
:10117000900395E0F8900394E068600479018002A0
:1011800079000210E402101A74FB121EB67E009061
:1011900006857808121F6C794A1213BD9006857473
:1011A00001F0A3F0A37469F0A374A5F09003D778BD
:1011B00008121EE170047E0180159003DB7808128E
:1011C0001EE16008E59D541864107003022000EED3
:1011D000F9121334C280D291EEA2E050030212E75A
:1011E000AA18AB19120291E970030212E7C29185A5
:1011F0001882851983E0C3943C500EE0F8743CC318
:1012000098F50895E0F5098006750800750900E471
:10121000F50AF50B9003DF780C121F6C7808790C37
:10122000121AD1790612015112101A120176E9F838
:101230007409687007790612015180277407686085
:1012400016A2935012E8600874066860030212E761
:10125000A292400F0212E7750800750900750A0096
:10126000750B0085080C85090D850A0E850B0F90FE
:1012700003C27808121EF6E50C450D450E450F70A9
:10128000A7D2807907120151800312101A12116C33
:10129000E970F77E007F007401121F88E4F0A374E8
:1012A00026F0A3E4F0A3F07401121F887808121F3F
:1012B0006C85080C85090D850A0E850B0F9003C2FD
:1012C000780C121EF67401121F88780C121F5DE54F
:1012D000084509450A450B70CEA29250FCA29350D6
:1012E000F81213B8022000D280D291794E1213BDA9
:1012F000750800750900750A00750B007905120163
:101300005112101A120176E9F874096860EE74013E
:101310006870EE12101A9003E37808121EF690031C
:10132000E77808121DFA50EB1213B802200074057A
:10133000121E372274F8121BCDE9FE53BEFBE59D49
:10134000A2E650FA0078F8790100E824FF18E934A1
:10135000FFF9E84970F375C6807480659E70FA43A2
:10136000BE049062707408F01213ADEE700853F46E
:10137000FEC29043FE017403F5D575D4899003969F
:10138000E4F0A374C2F0A37401F0A3E4F0A3F0A30B
:10139000F0A37408F01213D37AFF7BFF1219EC53F9
:1013A000F4FED29043FE011213AD021117D2804316
:1013B000FD01C29143FE0222D280C29122781075B3
:1013C000B60FE5B4A2E750FAE5BBC39940F118E8BF
:1013D00070ED2274F7121BCD7A0079011217768A0C
:1013E000828B83A3A3A3A3A3A3A3E493A2E6900366
:1013F000B2500474018001E4F09003B1E4F0906213
:101400000F7403F0E0A2E750FB7F02021D6CC08264
:10141000C08390039F7402F0A3E4F09003A6F079D8
:1014200003121667752100752200D083D0822274C2
:10143000F6121BCD90620EE0FEE4F0906211E0FF28
:10144000A2E4501D7480F09003A67407F0E52145D6
:10145000226009852182852283121F979003A6E4CA
:10146000F0EFA2E2500B906211E4F09003A6F0803E
:10147000679003A6E0F87402687046906216E0FF79
:101480009003B3121DACEFF97A207B6212168174BF
:1014900003121E37EFF89003B612164512164F2F9F
:1014A000121657A3E0F8A3E0F9E8496004744080FD
:1014B000027448906211F0E849600302163B02167C
:1014C000177406687009852182852283121F979000
:1014D00003A6E060030215C2EFA2E0400302163B40
:1014E0007508B8750903750A007808121ECC7908CA
:1014F0007A207B621216817403121E3775210075E3
:1015000022009003B8E054E0601D24E0700302154F
:101510009D24E0607224C0604824E070030215A896
:1015200024E0606E0215B3A3E014602624FE601D63
:1015300024FE600A24FC601F24FE60208075120ACD
:10154000FE9003A6E06404707278608070120AF264
:1015500080EF120AE680EA120E7380E5120F9E8079
:10156000E0A3E0600E24FA600F24FE601024FE6009
:1015700011804012091980C9120B4480C4120E4117
:1015800080BF120F3E80BA7521B675221B121BB6A2
:1015900080AF7521B875221B121BB880A47521512C
:1015A00075221B121B51809975218175221B121BFC
:1015B00081808E9003A67404F0808E7840E890625B
:1015C00011F09003A6E0F874016870617F02900347
:1015D000B6E0F8A3E0F9C3E89420E994005007E8E6
:1015E000F5087F0A80037508209003B3121DACA98B
:1015F000087A207B621216AC7403121E37AC0812F4
:10160000164F2C121657A808A3121645EF90621118
:10161000F0E8C394205024E5214522600985218209
:10162000852283121F979003A6E4F0800E7405684C
:101630007009852182852283121F97EE90620EF039
:101640007F03021D6CC3E098F0A3E09400F02290A9
:1016500003B31216D9E922F9E43AFA9003B3E9F098
:10166000A3EAF0A3EBF022C082C083E99003A7783D
:1016700005F0A3D8FC9003AC7805F0A3D8FC0214C5
:101680002A74F8121BCDEAFCEBFDE9F87408121F6E
:10169000881216D460118C828D83E0121EA0E9247A
:1016A0000109E43AFAD8EF7F01021D6C74F8121BAD
:1016B000CDEAFCEBFDE9F87408121F881216D4601D
:1016C00011121E6D8C828D83F0E9240109E43AFA2F
:1016D000D8EF80D31216D9E822E0F9A3E0FAA3E00C
:1016E000FB22D083D08222C082C083E9FCEAFD7A4B
:1016F000007B00800312173290039DE0F8A3E0F90D
:1017000090047BE0687003A3E069602490039EE08E
:10171000F5838882A3E493F8EC68700D90039DE054
:10172000FAA3E0FB1217328007ED6870C8ED60C5C0
:1017300080B090039DE0F8A3E0F5838882E493F8FD
:1017400090039DE028F8A3E03400F990039DE8F0B1
:10175000A3E9F022C082C0831217657A00790112D2
:1017600016E70216E2900479E0F8A3E0F990039DF1
:10177000E8F0A3E9F02274F7121BCDE9FFEAFE12AC
:1017800017657A0079021216E7EA4B601CEF6010C9
:101790008A828B83A3A3A3A3A3E4936F70E480093D
:1017A000EEF874FF28FE0470D97F02021D6C74F5F8
:1017B000121BCDEAFF8B087A001217767A027904A1
:1017C0001216E7EA4B60188A828B83A3A3E4936F17
:1017D00070EA8A828B83A3A3A3E493650870DD7FFC
:1017E00004021D6C74F7121BCD74F0121EB6E97A58
:1017F000007B00600C146010146014146018021850
:10180000D47AF37B030218D47AF77B030218D47AD4
:101810001B7B040218D490043FE060030218D090B0
:1018200003EB7408121F377408121DD9750808F5E8
:10183000097808121ED07402121F377AE87B0779E4
:101840007F1218EB7402121E377808121ED0740A29
:10185000121F377402121F2F121C907402121E37AF
:101860008B09EA450970197509007808121ED07CA9
:101870000C7D787402121F2F121D267402121E375F
:101880007C287D00EDF8851882851983E58228F58E
:1018900082E43583F583E0FFECF8743F28F8E43404
:1018A00004F9EF1218DC88828983F0EFC41218DC87
:1018B000C0E0E824FEF582E934FFF583D0E0F00DC6
:1018C00074FC2CFCEDC3940840BA90043F742AF0D9
:1018D0007A3F7B047410121E370217A9540FFA7452
:1018E000692AF582E43404F583E02274F6121BCDF4
:1018F000890A740F550AF508750900740B780812E7
:101900001F1CEA2400F8EB3480F9E82400E93509CB
:10191000F985C709A2AFE433F508C2AFE50AC4549C
:101920000FFAE5C754F84AF5C7740A121F88E0FA9F
:10193000A3E0FB801C88828983E08C828D83F08801
:10194000828983A3A882A9838C828D83A3AC82AD74
:1019500083EAFEEBFFEE24FF1AEF34FFFBEE4F703D
:10196000D48509C7E508A2E092AF7F03021D6C741D
:10197000F7121BCDED900389F0ECA3F0A37462F095
:10198000A37473F0A3E0541FF07409121F88E0F5EC
:1019900008A3E0F509E508333354FC90038EF07496
:1019A000067808121F4EE50890038DF090038F749F
:1019B00012F0A37442F075D1FE75D601EA906271FF
:1019C000F0EBA3F0906270E0D2E1F0E0A2E740FB20
:1019D0007F02021D6CC082C083E9C333906272F043
:1019E000906270E0D2E0F0D083D0822274F7121BB4
:1019F000CD7523007524007525008A268B27EA9073
:101A0000620BF08A088B0974047808121F4EE508EF
:101A1000906207F08A088B0974097808121F4EE556
:101A200008543E906209F0758B00C2E87F02021DE7
:101A30006C74F7121BCDE59DA2E650FA906206E0A9
:101A4000F9A2E25034AA26EA90620BF0F508852745
:101A50000974047808121F4EE508906207F08A089E
:101A600085270974097808121F4EE508543E9062D4
:101A700009F0906201E0D2E0F0E9782346F6906246
:101A800002E0F50875090074047808121F1C782319
:101A9000E50846F608E50946F6906204E0F50875A3
:101AA000090074097808121F1C7824E50946F6E934
:101AB000A2E050037525017406596003752500E501
:101AC0008BA2E55006758BDF752500121BCC021A20
:101AD00027080808EAC0E0EBC0E086F0E7A4FA189F
:101AE0000986F0E7A42AFA180986F0E7A42AFA186A
:101AF0000986F0E7A42AFA1986F0E7A4FBE5F02AA4
:101B0000FA190886F0E7A42BFBE5F03AFA190886E3
:101B1000F0E7A42BFBE5F03AFA18180986F0E7A4E1
:101B2000C5F02BFBE43AFA1908E7C5F0C6A426F67F
:101B3000E5F03BFBE43AFA1886F0E7A4F6E5F00896
:101B400026F6E43B08F6E43A08F6D0E0FBD0E0FAEB
:101B500022C082C0839003B9E0F8742268700890B4
:101B600003A6E0701A80117420689003A6700DE03F
:101B7000700D121BA89003A6740280027404F080FA
:101B800043C082C0839003B9E064219003A6701320
:101B9000E07013121BA8A37407F0A3E4F09003A64F
:101BA0000480027404F0801C9003B37496F0A37454
:101BB00003F0A3E4F02280028000C082C08390037F
:101BC000A67404F0D083D0822280EF22222518C58B
:101BD00082C0E0E51934FFC583C0E0E518C39582F3
:101BE00024F910AF08858319858218800885831928
:101BF000858218D2AFCEF0A3E520F0A37808E608DE
:101C0000F0A3DEFAEFF0A3E58124FBF8E608F0A3E9
:101C1000E608F0A30808E608F0A3E608F0A315819B
:101C20001581D0E0FED0E0F815811581E8C0E0EE26
:101C3000C0E02212010002020000205104A816098F
:101C40000001020301090243000201008019090496
:101C50000000010202010005240010010424020218
:101C60000524060001052401000107058203400048
:101C70004009040100020A00000007058402400038
:101C800000070504024000004E1C0000711C00000B
:101C900074F8121BCD7408121F88E0FEA3E08015B3
:101CA000A3AA82AB838C828D83A3AC82AD83EE2406
:101CB000FF1EEF34FFFFEE4F60198C828D83E0F83A
:101CC0008A828B83E0F9E86960D6E9C398FA95E0E7
:101CD000FB80047A007B007F01021D6CE47921788F
:101CE00007B800028004F709D8FCE490030278C129
:101CF00079018002F0A3D8FCD9FA7AC27B03900064
:101D00008E78C479018015E493A3AD82AE838A8274
:101D10008B83F0A3AA82AB838D828E83D8E9D9E727
:101D2000121188121F9274F7121BCDEAF8EBF974A6
:101D300009121F88E0FEA3E0FF80188C828D83E0EB
:101D400088828983F0A3A882A9838C828D83A3AC27
:101D500082AD838E088F09E50824FF1EE50934FF54
:101D6000FFE508450970D47F02021D6C8519838543
:101D70001882E0A3FEE0A3F5207808E0A3F608DFD0
:101D8000FAE0A3FFE0A3C0E0E0A3C0E0E0A3C0E06E
:101D9000E0A3C0E010AF088582188583198008850C
:101DA0008218858319D2AFD083D082227403800039
:101DB000CCC0E0EDC0E0E518C39CCCAD1950011DCE
:101DC00010AF068C188D1980068C188D19D2AF12A1
:101DD0001DD9D0E0FDD0E0FC22CAC0E0E0A3C5825E
:101DE000CCC582C583CDC583F0A3C582CCC582C5D1
:101DF00083CDC583DAE6D0E0CA22C008C3E096F5F9
:101E00000808A3E096420808A3E096420808A3E069
:101E10009645087001D3D00822C5822518C582C511
:101E200083351910AF07F5198582188007F51985D4
:101E30008218D2AFC5832200C0D0251810AF08F594
:101E400018500C05198008F51850020519D2AFD0AA
:101E5000D0222518F58210AF08F518400C1519800E
:101E600008F51840021519D2AF85198322BB01026B
:101E7000E722C082C08389828A83BB0003E080029C
:101E8000E493D083D082226016080808C6C313C624
:101E900018C613C618C613C618C613C6D5E0EA225C
:101EA000BB000EC082C0838A838982F0D083D08237
:101EB00022BB0101F722251810AF08F518400C15B8
:101EC000198008F51840021519D2AF227403800456
:101ED00074028000C0E0F404121E52D0E0121F7B96
:101EE00022E066701008A3E066700A08A3E066703E
:101EF0000408A3E06622E026F608A3E036F608A36D
:101F0000E036F608A3E036F622E627F60809E637BB
:101F1000F60809E637F60809E637F622700422606B
:101F20000D18C6C333C608C633C6D5E0F41822253B
:101F300018FAE43519FB222518FCE43519FD227541
:101F4000D00075813F751802751903021CDC600C06
:101F500008C6C313C618C613C6D5E0F422E6F008B7
:101F6000A3E6F008A3E6F008A3E6F022E0F608A353
:101F7000E0F608A3E0F608A3E0F622CAC0E0E6F027
:101F8000A308DAFAD0E0FA222518F582E43519F52B
:101F9000832200000080FBE473FFFFFFFFFFFFFFD1
:101FA000FFFFFFFFFFFFFFFFFFFFFFFFFFFFFFFF41
:101FB000FFFFFFFFFFFFFFFFFFFFFFFFFFFFFFFF31
:101FC000FFFFFFFFFFFFFFFFFFFFFFFFFFFFFFFF21
:101FD000FFFFFFFFFFFFFFFFFFFFFFFFFFFFFFFF11
:101FE000FFFFFFFFFFFFFFFFFFFFFFFFFFFFFFFF01
:0A1FF600850609433886000000004C
:020000040003F7
:01FFF000F020
:020000040000FA
:10200000022D6302222FFFFFFFFFFFFFFFFFFFFFF5
:10201000FFFFFFFFFFFFFFFFFFFFFFFFFFFFFFFFD0
:10202000FFFFFFFFFFFFFFFFFFFFFF022B3DFFFF53
:10203000FFFFFF022251FFFFFFFFFFFFFFFFFFFF38
:10204000FFFFFFFFFFFFFFFFFFFFFFFFFFFFFFFFA0
:10205000FFFFFF02216FFFFFFFFFFFFFFFFFFFFFFB
:10206000FFFFFFFFFFFFFFFFFFFFFF022A06FFFF4B
:10207000FFFFFFFFFFFFFFFFFFFFFF02288DFFFFB6
:10208000FFFFFF0221C3FFFFFFFFFFFFFFFFFFFF77
:1020900010201020010020FD00020000643100002B
:1020A0000000FE30E8313431A63100002831000054
:1020B0000000000000000000000000000000000020
:1020C00000000000000006FFFFFF00035F005F004C
:1020D0003000580000000000000000000000000078
:1020E00000000000000000000000000000000000F0
:1020F00000000000AD2602270227022702270A2738
:1021000001010400CC18000000E8030000FFFF47B5
:102110001903E803000064006400B801A0BB0D00CF
:10212000A0BB0D0002020008000005020704010523
:102130001E02051402013C0A0A01080803B80B023A
:10214000803E0102FEFFE8030A050001FFFF0A14BA
:1021500001E0010105030101FF0F10FEFF094E0020
:102160000000007B4C00000000FF000000FF00C0EA
:10217000E074F212264EA2AFE433F508D2AFAFA757
:10218000AEA1EE5F54106006122E9475A1EFEE5FC3
:1021900054086008122E9A75A1F78023EEA2E092EF
:1021A000F0EFA2E082F05017906198E0F890054CB3
:1021B000E0C398A2D265D0335002E8F075A1FEE5E5
:1021C000088063C0E074F212264EA2AFE433FED260
:1021D000AF9061A4E0F8759B00E591585408600841
:1021E0007591F7122EE28023E5915854106008751E
:1021F00091EF122EE88014E591A2E092F0E8A2E0BF
:1022000082F05007E0C2E0F01230329061A3E0F8B3
:10221000E5E9585404600E12300875E9FB906193AB
:10222000E0A2E640F2EEA2E092AF7F0102270AC0F0
:10223000E074F212264EA2AFE433FED2AF9061A555
:10224000E0F8E5BF585404600675BFFB12304A80C1
:10225000D4C0E074F112264EE59DA2E650FA9062D9
:1022600006E0F9A2E25034AA2CEA90620BF0F508DD
:10227000852D0974047808122D82E508906207F014
:102280008A08852D0974097808122D82E508543EC4
:10229000906209F0906201E0D2E0F0E9782946F618
:1022A000906202E0F50875090074047808122CB0F9
:1022B0007829E50846F608E50946F6906204E0F557
:1022C0000875090074097808122CB0782AE50946C7
:1022D000F6E9A2E05003752B017406596003752BD3
:1022E00000E58BA2E55006758BDF752B0012356C6F
:1022F000758B00C2E87F0202270AC3E498F8E499CC
:10230000F912233B8026C3E49AFAE49BFBE920E719
:10231000E912233BE498F8E499F922C3E498F8E43D
:1023200099F912233BE498F8E499F9C3E49AFAE4A2
:102330009BFB22EB20E7CFE920E7E0B90010BB00D0
:1023400008E88AF084F8AAF022E4FBC8FA22EB70CD
:10235000227B10C833C8C933C9335007C39AC3DBC3
:10236000F280069A50012ADBEAC833F4C8C933F474
:10237000C9FA2275F008E4C833C8C933C933C99A09
:10238000C99B5004C92AC93BD5F0ECFBC833F4C83B
:10239000E4C9FA2274F512258574FA122BBA75086D
:1023A000047509007808122B0F7404122B9A7AF81E
:1023B0007B0779031248F27402122B2290811F7856
:1023C00008122D737402122DF47808122C11704823
:1023D0007508027509007808122B0F7402122B9AE7
:1023E0007AF67B0779031248F27402122B228518C1
:1023F00082851983E0F47003A3E0F4601B851882E2
:10240000851983E0F8A3E08882F5837402F0A3F0D5
:10241000A37469F0A374A5F0C2AF75D69F02000043
:102420007406122B227F040228D0080808EAC0E0B4
:10243000EBC0E086F0E7A4FA180986F0E7A42AFAD0
:10244000180986F0E7A42AFA180986F0E7A42AFA00
:102450001986F0E7A4FBE5F02AFA190886F0E7A44C
:102460002BFBE5F03AFA190886F0E7A42BFBE5F020
:102470003AFA18180986F0E7A4C5F02BFBE43AFAFB
:102480001908E7C5F0C6A426F6E5F03BFBE43AFAE6
:102490001886F0E7A4F6E5F00826F6E43B08F6E433
:1024A0003A08F6D0E0FBD0E0FA22E4CFC0E0E4CE78
:1024B000C0E0E4CDC0E0E4CCC0E075F020E626F654
:1024C00008E633F608E633F608E633F6181818EC93
:1024D00033FCED33FDEE33FEEF33FFC3EC9709ED34
:1024E0009709EE9709EF97191919400FFFEC97FC20
:1024F00009ED97FD09EE97FE191906D5F0BFECF727
:1025000009EDF709EEF709EFF7191919D0E0FCD03A
:10251000E0FDD0E0FED0E0FF222518C582C0E0E556
:102520001934FFC583C0E0E518C3958224F810AFC5
:10253000088583198582188008858319858218D2B9
:10254000AFCEF0A3E520F0A37808E608F0A3DEFA0A
:10255000EFF0A3E58124FAF8E608F0A3E608F0A37B
:10256000E608F0A30808E608F0A3E608F0A3158142
:102570001581D0E0FED0E0F8158115811581E8C005
:10258000E0EEC0E0222518C582C0E0E51934FFC5A1
:1025900083C0E0E518C3958224F910AF088583193C
:1025A0008582188008858319858218D2AFCEF0A362
:1025B000E520F0A37808E608F0A3DEFAEFF0A3E543
:1025C0008124FBF8E608F0A3E608F0A30808E60873
:1025D000F0A3E608F0A315811581D0E0FED0E0F865
:1025E00015811581E8C0E0EEC0E022122DE9B900A6
:1025F00003022638E47921780DB800028004F70937
:10260000D8FCE49004D1785479188002F0A3D8FC67
:10261000D9FA7A247B1C90209478DC79018015E427
:1026200093A3AD82AE838A828B83F0A3AA82AB830D
:102630008D828E83D8E9D9E775821C7583B07406C4
:10264000122ACE75827875834A7400122ACEC0D0C1
:102650002518C582C0E0E51934FFC583C0E0E51840
:10266000C3958224F310AF088583198582188008EA
:10267000858319858218D2AFC8F0A3E9F0A3EAF0E8
:10268000A3EBF0A37908E709F0A3D8FAECF0A3EDE7
:10269000F0A3EEF0A3EFF0A3D0E0F0A3D0E0F0A31E
:1026A000D0E0F0A3E520F0A3E5F0F0A322120100B2
:1026B00002020000205104A81609000102030109CA
:1026C0000243000201008019090400000102020116
:1026D000000524001001042402020524060001055F
:1026E00024010001070582034000400904010002A3
:1026F0000A000000070584024000000705040240AC
:102700000000C8260000EB2600008519838518828A
:10271000E0C0E0A3E0F9A3E0FAA3E0FBA37808E0BF
:10272000F608A3DFFAE0FCA3E0FDA3E0FEA3E0FFD0
:10273000A3E0C0E0A3E0C0E0A3E0F5D0A3E0F52073
:10274000A3E0A3F5F010AF088583198582188008EF
:10275000858319858218D2AFD082D083D0E0F8D09B
:10276000E032E47375F0108E218F228582268583F6
:1027700025851882851983E0CEA3E0CF8526828542
:102780002583EBC9EAC8EDCBECCAC3E833C8E9330B
:10279000C9EA33CAEB33CBC3EA9EF524EB9FF5239A
:1027A000B35004AB23AA24EC33CCED33CDD5F0DA0F
:1027B000AE21AF2222D083D082ECC0E0EDC0E0E4B5
:1027C00093A3FCE493A3FDED4C600D122910EC24BF
:1027D000FFFCED34FFFD80EFE493A3FCE493A3FD45
:1027E000ED4C600D1229B1EC24FFFCED34FFFD80AF
:1027F000EFD0E0FDD0E0FCE493A3C0E0E493C0E0C0
:1028000022851983851882E0A3FEE0A3F5207808CD
:10281000E0A3F608DFFAE0A3FFE0A3C0E0E0A3C076
:10282000E0E0A3C0E0E0A3C0E0E0A3C0E010AF0898
:102830008582188583198008858218858319D2AF0F
:10284000D083D082022AD4D083D082E9C0E0E4933E
:10285000A3C386F0C5F095F0F908E493A386F0C50C
:10286000F095F0700BE493A3C3994005E90480024E
:10287000A3E475F002A42582F582E5F03583F583A3
:10288000D0E0F9E493A3C0E0E493C0E022C0E07498
:10289000F212264EA2AFE433FED2AFE58AA2E25096
:1028A0000790050EE0D2E0F0E58AA2E3500790051C
:1028B0000EE0D2E1F0758A00C2EB7A107B00900541
:1028C0000AE0F912331AEEA2E092AF7F0102270A62
:1028D000851983851882E0A3FEE0A3F5207808E03F
:1028E000A3F608DFFAE0A3FFE0A3C0E0E0A3C0E0A6
:1028F000E0A3C0E0E0A3C0E010AF088582188583A4
:10290000198008858218858319D2AFD083D082229E
:10291000C0E0C3E49396087401939618400FE493C3
:1029200066700808740193661870007019A3A3C339
:10293000E49396087401939618A3A3400DD0E0D0B9
:10294000E0D0E00227F1A3A3A3A3A3A3D0E02274C5
:102950000480087403800474028000CCC0E0EDC0E1
:10296000E0E518C39CCCAD1950011D10AF068C18C2
:102970008D1980068C188D19D2AF122A50D0E0FD27
:10298000D0E0FC2274028000CCC0E0EDC0E0E5188D
:10299000C39CCCAD1950011D10AF068C188D198049
:1029A000068C188D19D2AF122A2ED0E0FDD0E0FC93
:1029B00022C0E0C0F088F0E49366700808740193C8
:1029C00066187000A8F0A3A3700BD0F0D0E0D0E0A0
:1029D000D0E00227F1A3A3D0F0D0E022D083D082B0
:1029E000CCC0E0E493A36006122A711470FAE49359
:1029F000A36006122BE61470FAD0E0FCE493A3C0A7
:102A0000E0E493C0E022C0E074F212264E75890023
:102A1000C2C59019F2E0700E7A007B109005E2E0DA
:102A2000F912331A8003123BFC7F0102270ACAC045
:102A3000E0E493A3C582CCC582C583CDC583F0A352
:102A4000C582CCC582C583CDC583DAE5D0E0CA2274
:102A5000CAC0E0E0A3C582CCC582C583CDC583F0E2
:102A6000A3C582CCC582C583CDC583DAE6D0E0CAD2
:102A700022C0E0E493A3D39C5010E493A3C39C40F2
:102A80000AD0E0D0E0D0E00229F9A3A3A3D0E0224D
:102A9000C008C3E096F50808A3E096420808A3E042
:102AA00096420808A3E09645087001D3D00822702A
:102AB00009080808226016181818C6C333C608C6C5
:102AC00033C608C633C608C633C6D5E0EA22C09F5F
:102AD000F59FE473D09F22D083D082C09FE493C03F
:102AE000E0740193C0E0740293F59F222518F582EB
:102AF00010AF08F518400C15198008F5184002159C
:102B000019D2AF851983227404800A740380067475
:102B10000280027401C0E0F404122AECD0E0122D0D
:102B2000A02200C0D0251810AF08F518500C0519C8
:102B30008008F51850020519D2AFD0D022C0E0C0ED
:102B4000D0E8C0E0A8A8D2AFC2C7E8A2E792AFD051
:102B5000E0F8D0D0D0E032BB0102E722C082C083CF
:102B600089828A83BB0003E08002E493D083D08211
:102B7000226016080808C6C313C618C613C618C6AE
:102B800013C618C613C6D5E0EA222518F8E435198D
:102B9000F9222518FAE43519FB222518FCE4351929
:102BA000FD22C3E0C696F608A3E0C696F608A3E0A9
:102BB000C696F608A3E0C696F622251810AF08F5CB
:102BC00018400C15198008F51840021519D2AF22CB
:102BD000BB000EC082C0838A838982F0D083D082FA
:102BE00022BB0101F722C0E0E493A36C7009D0E09E
:102BF000D0E0D0E00229F9A3A3D0E022E76670106C
:102C00000809E766700A0809E76670040809E766BC
:102C100022E066701008A3E066700A08A3E0667000
:102C20000408A3E06622C3E09608A3E09608A3E0A8
:102C30009608A3E096A2D265D03322C3E096F008AE
:102C4000A3E096F008A3E096F008A3E096F022C374
:102C5000E697F60809E697F60809E697F60809E602
:102C600097F622C3E493960874019396087402932E
:102C700096087403939622E627F60809E637F608C5
:102C800009E637F60809E637F622E026F008A3E061
:102C900036F008A3E036F008A3E036F022E647F667
:102CA0000809E647F60809E647F60809E647F62266
:102CB000700422600D18C6C333C608C633C6D5E0FB
:102CC000F41822E493F608740193F608740293F65C
:102CD00008740393F622E026F608A3E036F608A36C
:102CE000E036F608A3E036F622E657F60809E6577E
:102CF000F60809E657F60809E657F622E056F60800
:102D0000A3E056F608A3E056F608A3E056F622E044
:102D100056F008A3E056F008A3E056F008A3E056EA
:102D2000F022E4C396F608E496F608E496F608E482
:102D300096F622C6F4C608C6F4C608C6F4C608C687
:102D4000F4C622C3E09608A3E09608A3E09608A381
:102D5000E09622C3E7960809E7960809E79608096E
:102D6000E7962275D00075813F7518D1751904005A
:102D70000225EBE0F608A3E0F608A3E0F608A3E0DE
:102D8000F622600C08C6C313C618C613C6D5E0F4F5
:102D900022E6F008A3E6F008A3E6F008A3E6F02296
:102DA000CAC0E0E6F0A308DAFAD0E0FA22ECF0A319
:102DB000EDF0A3EEF0A3EFF022E0FCA3E0FDA3E032
:102DC000FEA3E0FF22E0FAA3E0FBA3E0FCA3E0FD0A
:102DD00022E0F8A3E0F9A3E0FAA3E0FB22E8F0A3E5
:102DE000E9F0A3EAF0A3EBF022E5C754F84401F5BB
:102DF000C77901222518F582E43519F58322122AB4
:102E0000D711A706122AD758A706122AD71BA80639
:102E1000122AD743A806122AD769A806122AD77DF4
:102E2000A806122AD792A806122AD79BA806122A09
:102E3000D760F805122AD78CF805122AD70EFB05A1
:102E4000122AD765FB05122AD7A5FB05122AD7B986
:102E5000FB05122AD7D2FB05122AD7C3FC05122A7A
:102E6000D774FD05122AD788FD05122AD715B50695
:102E7000122AD739B506122AD752B506122AD78494
:102E8000B506122AD7B4B506122AD7E1B506122A1A
:102E9000D743B606122AD752B606122AD75CB60610
:102EA000122AD769B606122AD7DCA806122AD7FC3E
:102EB000A806122AD73BA906122AD756A906122A13
:102EC000D775A906122AD7DBA906122AD7E4A906C4
:102ED000122AD741AA06122AD765AA06122AD7268D
:102EE000AB06122AD733AB06122AD744AB06122AF6
:102EF000D74FC106122AD767C106122AD793C10637
:102F0000122AD7FB8906122AD7558B06122AD763B5
:102F10008B06122AD7768B06122AD78B8B06122A9B
:102F2000D7A08B06122AD7B38B06122AD7278C0676
:102F3000122AD78C8C06122AD72E8D06122AD7F287
:102F40008D06122AD7028E06122AD7118E06122A51
:102F5000D734BE06122AD758BE06122AD780BE061C
:102F6000122AD7A8BE06122AD772AB06122AD79900
:102F7000AB06122AD7B8AB06122AD720AC06122A03
:102F8000D764A306122AD77DA306122AD789A306DF
:102F9000122AD79DA306122AD7BBA306122AD7C589
:102FA000A306122AD7CFA306122AD7E2A306122A13
:102FB000D76FA406122AD7DEA406122AD70DA506BB
:102FC000122AD75BA506122AD7AAA506122AD7C5A8
:102FD000A506122AD7CFA506122AD7E0A506122ADF
:102FE000D723A606122AD79DFF03122AD7D5D105CB
:102FF000122AD7FFD105122AD71CD205122AD72FA1
:10300000D205122AD745D205122AD7A3D205122AF1
:10301000D7D6D205122AD7C7D605122AD727D80560
:10302000122AD75AD805122AD7A4D805122AD7F7B8
:10303000D905122AD71FDA05122AD734DA05122A3F
:10304000D744DA05122AD788DA05122AD7E3DA0537
:10305000122AD7F3DA05122AD7CEB706122AD7E8F2
:10306000B706122AD710B806122AD729B806122A8C
:10307000D74DB806122AD76BB806122AD782B806DF
:10308000122AD7B0B806122AD7CBB806122AD7BA56
:10309000FF01122AD7339606122AD7439606122A20
:1030A000D7489706122AD77A9706122AD7A09706EA
:1030B000122AD7C39706122AD7DA9706122AD714EC
:1030C0009806122AD77D9806122AD7BF9806122A88
:1030D000D7FE9806122AD72F9906122AD766990684
:1030E000122AD74A9206122AD7AF9206122AD75529
:1030F0009306122AD78C9306122AD7F2F104122AC9
:10310000D789F204122AD7B6F404122AD7A1F704F9
:10311000122AD72FF904122AD79BF904122AD7EAC8
:10312000FC04122AD735FE04122AD7FEB806122A4A
:10313000D749B906122AD7008006122AD7A68206D6
:10314000122AD74B8306122AD7778306122AD7A5CD
:103150008306122AD7DA8306122AD7028406122A95
:10316000D7628406122AD714BC05122AD77CC00560
:10317000122AD764C205122AD78DC305122AD76D29
:10318000C405122AD710C605122AD7DCC605122A92
:10319000D730C705122AD7ECAD06122AD7F6AD06EE
:1031A000122AD717AE06122AD7A49305122AD7A43B
:1031B0009805122AD7129A05122AD7CE9B05122AF1
:1031C000D7499C05122AD7F19C05122AD7EA9D05FA
:1031D000122AD71C9F05122AD734A005122AD71409
:1031E000A105122AD725BA04122AD75DBA04122AD9
:1031F000D700C404122AD7E1C404122AD71FC60478
:10320000122AD766C704122AD71CC804122AD7F478
:10321000C804122AD785C904122AD77ECA04122AE2
:10322000D778CB04122AD71ACC04122AD744CC045C
:10323000122AD7F1CD04122AD761CE04122AD77AE6
:10324000CE04122AD7D1CF04122AD782D004122A50
:10325000D704D104122AD7B0D104122AD720D2041D
:10326000122AD7BCD204122AD738D304122AD7562E
:10327000D304122AD758D404122AD70ED504122AFE
:10328000D7B4D504122AD7A8B306122AD7D2B306C8
:10329000122AD7E5B406122AD7E8B406122AD76C48
:1032A000BF06122AD7AEBF06122AD7F0BF06122ACF
:1032B000D700C006122AD7E1F105122AD71FF2055E
:1032C000122AD788F205122AD7A5F205122AD7BEEC
:1032D000F205122AD770F305122AD779F305122ABC
:1032E000D7BEF305122AD7F4F305122AD70BF4053B
:1032F000122AD77DF405122AD70AF505122AD740DB
:10330000F505122AD797F505122AD7FBF505122ADB
:10331000D71EF605122AD782F605122AD7DEF60541
:10332000122AD719F705122AD74EF705122AD760A5
:10333000F705122AD772F705122AD7AAF705122A1B
:10334000D7F6F705122AD734F805122AD7147B00CE
:10335000122AD7547C00122AD7777C00122AD788E9
:103360007C00122AD77D7E00122AD79D7E00122A69
:10337000D79CFD05122AD7D2FD05122AD71AFE05C1
:10338000122AD776FF05122AD7008005122AD731D4
:103390008105122AD76B8105122AD72A8305122AA2
:1033A000D7548305122AD7E18505122AD72186052D
:1033B000122AD7B88705122AD74B8805122AD7A315
:1033C0008805122AD7468905122AD77E8905122A2E
:1033D000D7C08905122AD72F8B05122AD7818C05D1
:1033E000122AD7A48E05122AD7D28E05122AD7F90F
:1033F0008E05122AD7028F05122AD7528F05122A5C
:10340000D7E48F05122AD7D49205122AD7579305ED
:10341000122AD78AC006122AD7A0C006122AD7AA13
:10342000C006122AD799FB03122AD7AFFB03122A30
:10343000D754FC03122AD793FC03122AD7B0FC03FB
:10344000122AD7E1FC03122AD72EFD03122AD761D4
:10345000FD03122AD79CFD03122AD788FF03122AE4
:10346000D732BB06122AD787BB06122AD7D2BB0691
:10347000122AD71FBA06122AD791BA06122AD7CF14
:10348000BA06122AD710BB06122AD7D7F701122A7A
:10349000D7DDF701122AD71DF801122AD70FFA013A
:1034A000122AD73FFA01122AD7AEFA01122AD77C84
:1034B000FB01122AD7BDFB01122AD7EBFB01122A0E
:1034C000D775FC01122AD78CFC01122AD799FC016E
:1034D000122AD7A3FC01122AD73FFE01122AD734A1
:1034E000FF01122AD77DFF01122AD723DB05122AFA
:1034F000D739DB05122AD7CCDB05122AD7F8DC0531
:10350000122AD7EDDD05122AD78ADE05122AD7CA7C
:10351000DE05122AD748DF05122AD7A5DF05122AB1
:10352000D7B5DF05122AD7DCDF05122AD72FE00531
:10353000122AD7A0E105122AD7A5E105122AD7C57C
:10354000E105122AD70AC006122AD738C006122A65
:10355000D76DC006122AD76FC006122AD771C006CF
:10356000122AD782C006122AD784C006122AD78709
:10357000C006122AD719B206122AD787B206122A13
:10358000D7A9B206122AD7E1B206122AD717B30674
:10359000122AD74CA006122AD793A006122AD7B611
:1035A000A006122AD7E9A206122AD703A306122AD6
:1035B000D72EA306122AD704C106122AD793E305F1
:1035C000122AD76CE405122AD752E505122AD763CE
:1035D000E505122AD774E505122AD7C0E505122A97
:1035E000D7B4E705122AD708E905122AD738E90522
:1035F000122AD7FFE905122AD75DEA05122AD7FF5A
:10360000DA02122AD75ADB02122AD701DC02122A66
:10361000D774DD02122AD74EDE02122AD70BDF0240
:10362000122AD722DF02122AD771DF02122AD7D537
:10363000DF02122AD725E002122AD738E002122A26
:10364000D799E002122AD7F2E002122AD70AE10241
:10365000122AD79EE302122AD7A2E402122AD7DD49
:10366000E402122AD731E502122AD7CEE702122A43
:10367000D714E802122AD787E802122AD7D1E80223
:10368000122AD7A5E902122AD7E8E902122AD7029C
:10369000EA02122AD749EA02122AD769EA02122A52
:1036A000D70EEB02122AD7F2EB02122AD7FDEB0259
:1036B000122AD74BEC02122AD7A0EC02122AD7E723
:1036C000EC02122AD74BEE02122AD76FEE02122A10
:1036D000D7F6F002122AD72DF102122AD735F202BC
:1036E000122AD759F202122AD7C8F202122AD78B0D
:1036F000F302122AD7C6F302122AD72CF402122A96
:10370000D741F502122AD789F502122AD793F5027A
:10371000122AD796F502122AD7D2F502122AD7E535
:10372000F502122AD76EF602122AD797F602122A4B
:10373000D7AAF602122AD7D6F602122AD7FDF60227
:10374000122AD721F702122AD79AF702122AD70C87
:10375000F802122AD743F802122AD746F802122A90
:10376000D775F802122AD78BF802122AD7A6F802C8
:10377000122AD7D4F802122AD7F4F802122AD73D17
:10378000F902122AD778F902122AD77FFA02122AEE
:10379000D7DDFB02122AD7F3FB02122AD70AFC025A
:1037A000122AD71CFC02122AD742BD06122AD7536E
:1037B000BD06122AD7DCBD06122AD7F67F00122AD0
:1037C000D7D6EA05122AD725EB05122AD7C5EC056C
:1037D000122AD799EE05122AD7DBEE05122AD7A6B0
:1037E000EF05122AD7AEF005122AD7D0F005122A1B
:1037F000D72CF105122AD7ADF105122AD763500054
:10380000122AD7855000122AD7DD5100122AD72656
:103810005200122AD79C5200122AD71A5300122A99
:10382000D77F5300122AD7295400122AD794540064
:10383000122AD73F5500122AD7D65500122AD71B75
:103840005600122AD72A5A00122AD7315C00122AAF
:10385000D7645C00122AD7B65C00122AD7B95F0081
:10386000122AD7356000122AD7ED6100122AD71F1D
:103870006300122AD7376400122AD7AF6400122AD5
:10388000D78F6500122AD7FA6500122AD70E660074
:10389000122AD7D56600122AD7056800122AD72027
:1038A0006A00122AD7186C00122AD7FF6C00122A5D
:1038B000D7956F00122AD7367000122AD7367100BA
:1038C000122AD7987400122AD7A87400122AD7EEA9
:1038D0007500122AD78B7600122AD7B57700122AE4
:1038E000D7467800122AD7737900122AD7B8790000
:1038F000122AD74C7A00122AD75BD604122AD7FB99
:10390000D604122AD765D704122AD77ED704122AE2
:10391000D70DD804122AD751D804122AD770D90447
:10392000122AD7ACD904122AD71FDA04122AD76A6E
:10393000DA04122AD7C9DA04122AD773DB04122A4E
:10394000D75CDE04122AD779DF04122AD7F6DF0407
:10395000122AD7B7E104122AD757E204122AD7F65F
:10396000E204122AD759E304122AD7CEE304122A1A
:10397000D7DDE404122AD7BEE504122AD7F4E50401
:10398000122AD727E604122AD7DBE604122AD70721
:10399000E704122AD782E704122AD705E904122A7B
:1039A000D780EA04122AD7D5EB04122AD748ED04AF
:1039B000122AD754EE04122AD7FBEE04122AD76932
:1039C000EF04122AD781F004122AD7ACDA03122AA4
:1039D000D717DB03122AD75FDB03122AD7A3DB0337
:1039E000122AD70DDC03122AD756DC03122AD791EC
:1039F000DC03122AD72BDD03122AD785DD03122A16
:103A0000D7DFDE03122AD768DF03122AD792DF033B
:103A1000122AD799E003122AD7A8E103122AD7DA8B
:103A2000E103122AD7CAE203122AD7DBE203122AE1
:103A3000D7F3E203122AD7D4E503122AD7F1E5031C
:103A4000122AD7C4E603122AD7EEE603122AD705B4
:103A5000E703122AD72BE703122AD762E703122AB9
:103A6000D782E703122AD7B4E703122AD7D3E70392
:103A7000122AD7B3E803122AD70BE903122AD781F7
:103A8000EA03122AD70EEB03122AD732EB03122ACB
:103A9000D749EB03122AD714EC03122AD7B7EC0349
:103AA000122AD7DDEC03122AD7FCED03122AD71B0A
:103AB000EE03122AD79CEE03122AD709EF03122A2B
:103AC000D74DEF03122AD7DBEF03122AD746F003B4
:103AD000122AD7F8F003122AD7E8F203122AD7C025
:103AE000F303122AD712F403122AD70CF503122A71
:103AF000D719F603122AD72EF703122AD73CF70359
:103B0000122AD70CF803122AD7ACF803122AD7F0DE
:103B1000F803122AD705F903122AD705FA03122A45
:103B2000D7A8FA03122AD700FB03122AD7BE990698
:103B3000122AD7F79A06122AD7BD9B06122AD72136
:103B40009C06122AD7959C06122AD74A8E06122A5C
:103B5000D7688E06122AD7AC8E06122AD7D28E06C6
:103B6000122AD7F88E06122AD7108F06122AD7CD1E
:103B7000BE06122AD7408F06122AD7AB8F06122A0A
:103B8000D7ED8F06122AD7029006122AD70991067E
:103B9000122AD7249106122AD72D9106122AD73637
:103BA0009106122AD73F9106122AD7499106122A66
:103BB000D7C69106122AD7158506122AD73189064B
:103BC000122AD74D8906122AD7528906122AD79867
:103BD000B006122AD7D8A606122AD73F9D06122A67
:103BE000D7B19E06122AD7DB9E06122AD7219F063E
:103BF000122AD71DA006122AD773B606122AD7A2F8
:103C0000C106122AD706C206122AD7008002122A3B
:103C1000D7578002122AD7C38002122AD74F8102B7
:103C2000122AD7058202122AD74D8202122AD7669B
:103C30008202122AD7898202122AD7AB8202122A62
:103C4000D7E98202122AD7388302122AD763830265
:103C5000122AD7C18302122AD7688402122AD710E7
:103C60008502122AD78C8502122AD7598602122A77
:103C7000D7A08602122AD7EC8602122AD7748702AE
:103C8000122AD7AD8702122AD7038802122AD71F19
:103C90008802122AD74E8802122AD75A8A02122A7A
:103CA000D7888B02122AD7B48B02122AD7E88B024C
:103CB000122AD7098C02122AD7188C02122AD7236B
:103CC0008C02122AD7D28C02122AD7428D02122AD3
:103CD000D7CD8D02122AD7D58D02122AD7428E0255
:103CE000122AD77E8E02122AD7448F02122AD717A1
:103CF0009002122AD76C9002122AD70B9102122A34
:103D0000D7659102122AD7AA9102122AD7439402A8
:103D1000122AD7869502122AD7709802122AD754EF
:103D20009902122AD7389A02122AD75D9A02122AC9
:103D3000D76E9A02122AD7E09A02122AD7779B02EC
:103D4000122AD7EB9B02122AD7DB9C02122AD70039
:103D50009D02122AD7189E02122AD7369E02122AD4
:103D6000D7529E02122AD7C59E02122AD7D49E028B
:103D7000122AD75C9F02122AD759A002122AD766AC
:103D8000A002122AD76FA002122AD751A202122A29
:103D9000D77DA302122AD78DA302122AD7C8A40264
:103DA000122AD747A502122AD778A602122AD7B418
:103DB000A602122AD78EA802122AD74BAC02122AC8
:103DC000D75FAC02122AD769AC02122AD773AC02B1
:103DD000122AD77DAC02122AD787AC02122AD7A0AA
:103DE000AC02122AD7AAAC02122AD721AD02122A9B
:103DF000D72CAD02122AD75BAD02122AD783AD02AF
:103E0000122AD78EAD02122AD7F3AD02122AD7FD9D
:103E1000AD02122AD708AE02122AD72CAE02122AFD
:103E2000D750AE02122AD7C2AE02122AD70BAF0267
:103E3000122AD727AF02122AD798AF02122AD7E444
:103E4000AF02122AD72DB002122AD76BB002122A63
:103E5000D7ECB002122AD793B102122AD758B30274
:103E6000122AD7BDB302122AD7EBB402122AD711F5
:103E7000B502122AD759B602122AD793B902122ACA
:103E8000D791BB02122AD75CBD02122AD7F5BD0218
:103E9000122AD7F6BF02122AD7ABC002122AD7E4E1
:103EA000C002122AD754C102122AD75EC102122AB6
:103EB000D787C302122AD78AC402122AD7C7C502DB
:103EC000122AD71EC602122AD7C9C602122AD779C9
:103ED000C802122AD7C6C902122AD7E6C902122A74
:103EE000D73BCA02122AD73CCB02122AD764CB0294
:103EF000122AD7C3CB02122AD7BBCC02122AD7323E
:103F0000CD02122AD745CE02122AD7B3CE02122AE8
:103F1000D7B2CF02122AD70CD202122AD735D20238
:103F2000122AD79BD302122AD71DD502122AD77480
:103F3000D502122AD722D602122AD7C7D602122AAF
:103F4000D72AD702122AD7E8D702122AD77AD8025C
:103F5000122AD7D9D802122AD71BD902122AD74C33
:103F6000D902122AD7A3DA02122AD7008003122A12
:103F7000D7328003122AD76B8003122AD7348203E8
:103F8000122AD7788203122AD74E8303122AD7AD7A
:103F90008303122AD7C38403122AD70F8503122A58
:103FA000D79D8703122AD7818A03122AD7C88B0389
:103FB000122AD7608C03122AD76C8C03122AD7B529
:103FC0008C03122AD7F78D03122AD7ED8E03122AFB
:103FD000D7178F03122AD76D8F03122AD7C68F03E4
:103FE000122AD7399003122AD76F9203122AD7F1D7
:103FF0009303122AD7DC9403122AD7269603122A97
:10400000D75E9803122AD75B9B03122AD76A9B03B9
:10401000122AD7FE9B03122AD7A99C03122AD7EC97
:104020009C03122AD7359D03122AD7859D03122A95
:10403000D7E99D03122AD75B9E03122AD7779E03E6
:10404000122AD7A69E03122AD7E59E03122AD7E08A
:104050009F03122AD78FA003122AD70CA303122A78
:10406000D73EA403122AD716A503122AD798A50370
:10407000122AD7CDA903122AD7FCA903122AD7578F
:10408000AA03122AD78AAA03122AD702AB03122A3A
:10409000D735AB03122AD796AB03122AD7E6AB0368
:1040A000122AD7B3AC03122AD76CAD03122AD73029
:1040B000AE03122AD7AAB003122AD70CB203122ACF
:1040C000D75DB303122AD781B403122AD784B4036D
:1040D000122AD7B3B403122AD7ABB603122AD76A6F
:1040E000B703122AD799B703122AD7B7B803122AEF
:1040F000D77FB903122AD740BB03122AD7B0BB031C
:10410000122AD7E2BB03122AD702BC03122AD771A4
:10411000BC03122AD76ABD03122AD78EBD03122A06
:10412000D701BE03122AD72AC003122AD789C00397
:10413000122AD7DDC003122AD70CC303122AD7EFE5
:10414000C303122AD777C403122AD75BC503122AE6
:10415000D7E5C503122AD7F9C503122AD70DC6031E
:10416000122AD721C603122AD735C603122AD762CC
:10417000C603122AD792C603122AD74DC803122AA1
:10418000D723C903122AD7C7C903122AD71CCA03C7
:10419000122AD77FCA03122AD7C8CA03122AD7EF16
:1041A000CA03122AD7B7CB03122AD75DCC03122A2F
:1041B000D7E3CD03122AD76ECE03122AD7B5CE038A
:1041C000122AD727CF03122AD77CD003122AD72549
:1041D000D103122AD759D103122AD771D103122A37
:1041E000D714D203122AD790D403122AD738D60371
:1041F000122AD756D603122AD774D603122AD740CA
:10420000D703122AD78EDA03122AD7948101122AF1
:10421000D7D68101122AD7438701122AD78F870167
:10422000122AD7D58701122AD7268901122AD78BBD
:104230008901122AD7CF8901122AD7358B01122A78
:10424000D7908E01122AD7C38F01122AD7529B0111
:10425000122AD7E29B01122AD7CC9E01122AD7310B
:10426000A001122AD794A001122AD7B0A101122AC4
:10427000D71AA301122AD7F9A301122AD767A601D8
:10428000122AD7F9A701122AD78AA801122AD7A978
:10429000A901122AD736AA01122AD740AA01122A46
:1042A000D768AA01122AD70BAB01122AD7F6AB01A5
:1042B000122AD7BEAC01122AD74BAD01122AD76100
:1042C000AD01122AD77EAD01122AD7A7AD01122A5D
:1042D000D7D4AD01122AD718B001122AD7EBB001FA
:1042E000122AD72FB101122AD7B1B101122AD752FF
:1042F000B201122AD784B201122AD7CBB201122AF4
:10430000D7FEB201122AD742B301122AD791B301C4
:10431000122AD796B301122AD7F2B301122AD7363E
:10432000B401122AD720B501122AD785B501122A65
:10433000D7E3B501122AD762B601122AD7DAB9013A
:10434000122AD7DDBA01122AD773BC01122AD7B6B6
:10435000BF01122AD758C001122AD7A1C201122ABE
:10436000D75CC301122AD79BC301122AD75FC501AC
:10437000122AD77CC501122AD785C501122AD78EE9
:10438000C501122AD799C501122AD7B8C501122A28
:10439000D7DCC701122AD739C801122AD743C8016E
:1043A000122AD74DC801122AD7B0C801122AD70C39
:1043B000C901122AD719CA01122AD77ACA01122AA8
:1043C000D78BCB01122AD7D4CB01122AD79ECC018E
:1043D000122AD7B5CD01122AD779CE01122AD7C514
:1043E000CF01122AD7C9D001122AD7C2D101122A6D
:1043F000D7DAD101122AD711D201122AD71BD20142
:10440000122AD725D201122AD730D201122AD74E2A
:10441000D201122AD796D201122AD7F4D201122A37
:10442000D71BD301122AD72DD301122AD7D6D301F5
:10443000122AD70FD401122AD740D501122AD79DAC
:10444000D501122AD78ED601122AD7C4D601122A34
:10445000D734D701122AD7B0D701122AD731D901C0
:10446000122AD758DA01122AD71ADB01122AD7E802
:10447000DB01122AD76DDC01122AD71CDD01122ABA
:10448000D704DE01122AD79DDE01122AD779DF0177
:10449000122AD7E1DF01122AD7A0E001122AD7FCA5
:1044A000E001122AD760E101122AD726E201122A7E
:1044B000D749E201122AD703E301122AD725E301E3
:1044C000122AD786E301122AD7B6E501122AD7AFFE
:1044D000E601122AD75BE701122AD778E901122AEE
:1044E000D7C1E901122AD70CEA01122AD768EA01DA
:1044F000122AD7C6EA01122AD7EAEA01122AD70EEF
:10450000EB01122AD743EB01122AD76BEB01122AD7
:10451000D7B0EB01122AD70EEC01122AD767EC01B3
:10452000122AD761ED01122AD70DEF01122AD752B4
:10453000EF01122AD77BEF01122AD704F001122AC9
:10454000D777F001122AD785F001122AD7A9F001F6
:10455000122AD7FFF001122AD71AF101122AD7D551
:10456000F101122AD701F201122AD744F201122ACC
:10457000D7A7F201122AD7B7F401122AD7E3F40120
:10458000122AD79EF501122AD782F601122AD716CF
:10459000F701122AD755C705122AD78DC705122A47
:1045A000D7AEC705122AD7F0C705122AD754C805B7
:1045B000122AD75EC805122AD76EC805122AD7A5B7
:1045C000C805122AD74ECC05122AD716CE05122AB4
:1045D000D7FACF05122AD79CD005122AD726D105A3
:1045E000122AD7508004122AD7F98004122AD7D869
:1045F0008104122AD7E48204122AD7048304122ADF
:10460000D7268404122AD7D68504122AD7438604D3
:10461000122AD7148704122AD71A8804122AD7928A
:104620008804122AD7CD8804122AD7268904122A90
:10463000D7618904122AD7AA8904122AD73E8A048C
:10464000122AD7D48A04122AD7A98B04122AD77C1B
:104650008C04122AD70A8D04122AD7308D04122A0C
:10466000D75D8D04122AD78E8D04122AD75B8E0453
:10467000122AD76B8E04122AD7BE8E04122AD7CBE9
:104680008E04122AD7D88E04122AD7E18E04122A59
:10469000D7458F04122AD7A38F04122AD7EE8F048E
:1046A000122AD7099004122AD7309004122AD74D23
:1046B0009004122AD7599004122AD7EA9104122A98
:1046C000D7039204122AD77F9204122AD792920417
:1046D000122AD7A29204122AD7469304122AD7B2DA
:1046E0009404122AD7C59504122AD7659604122A73
:1046F000D76F9604122AD7EE9604122AD7FF960493
:10470000122AD73E9704122AD76C9704122AD73957
:104710009804122AD7909804122AD7C99804122A0A
:10472000D71F9904122AD73D9904122AD78B9904CE
:10473000122AD7569A04122AD7A49A04122AD7F119
:104740009A04122AD7749B04122AD79E9B04122A19
:10475000D7D49B04122AD7E39B04122AD7429C0485
:10476000122AD7BA9C04122AD7FB9C04122AD74BD0
:104770009D04122AD7769D04122AD7909D04122AEE
:10478000D7AA9D04122AD77F9E04122AD7899E0495
:10479000122AD7C49E04122AD7D49E04122AD7DD27
:1047A0009E04122AD72E9F04122AD7429F04122A4F
:1047B000D764A004122AD777A004122AD78CA004A9
:1047C000122AD71FA104122AD793A104122AD7387C
:1047D000A204122AD743A204122AD7A6A304122A9B
:1047E000D7C2A304122AD70EA404122AD77CA40489
:1047F000122AD7AEA404122AD7C8A404122AD72892
:10480000A504122AD7C7A504122AD712A604122A71
:10481000D765A804122AD7FDA804122AD774A904C0
:10482000122AD7D1AB04122AD7E9AB04122AD7EC4B
:10483000AB04122AD7F8AB04122AD70CAC04122A04
:10484000D714AC04122AD74BAC04122AD73FAD04BC
:10485000122AD7C9AD04122AD74BAE04122AD7CBDD
:10486000AE04122AD7A2AF04122AD7C4AF04122A68
:10487000D75DB004122AD7BAB004122AD7BDB0044B
:10488000122AD72CB104122AD778B204122AD78B55
:10489000B304122AD716B404122AD729B504122A4F
:1048A000D7F0B504122AD721B604122AD747B60486
:1048B000122AD750B604122AD77FB604122AD72F4D
:1048C000B704122AD7DFB704122AD752B804122A23
:1048D000D7F5B804122AD768B904122AD7A7B904A1
:1048E000122AD7F0B904122AD729BD06122AD7C333
:1048F000BC06122AD740BC06122AD7F0FF04122A9F
:10490000D788FF04122AD773FF04122AD763FF0443
:10491000122AD7E37F00122AD7F97F00122AD7E79D
:10492000FF02122AD7E0FF02122AD733BB05122A50
:10493000D780BA05122AD7B4B905122AD710B805FC
:10494000122AD7D9B705122AD7ABB705122AD758DA
:10495000B705122AD7AFB605122AD717B605122AFD
:10496000D7F1B505122AD7A6B505122AD77AB5050B
:10497000122AD7EEB405122AD78DB405122AD748C9
:10498000B405122AD72EA606122AD763B305122A17
:10499000D7CEC106122AD77BFF02122AD7BCFD024E
:1049A000122AD7E8FC02122AD75CFC02122AD74E40
:1049B000FC02122AD759BF06122AD781B205122A41
:1049C000D729B205122AD799B105122AD709BF06ED
:1049D000122AD754B105122AD738B105122AD7E6C0
:1049E000AF05122AD7A8AF05122AD7299D06122A89
:1049F000D782AF05122AD7D0BE06122AD706AF0536
:104A0000122AD7CFAE05122AD788AE05122AD72789
:104A1000AE05122AD7FAAD05122AD7D0AD05122A53
:104A2000D79CAD05122AD774AD05122AD714AD054F
:104A3000122AD7FEAC05122AD7C3AC05122AD73AE0
:104A4000AC05122AD781A805122AD73FA605122A3B
:104A5000D7C2A305122AD74AA305122AD7EBA1056C
:104A6000122AD7FBA205122AD788A205122AD749F3
:104A7000A205122AD7288F0600000080FB8F0001B4
:104A800000E61987000100E51935000400A21C2585
:104A9000000200A61C26000200A81C27000200AA93
:104AA0001C28000100B41C29000100B51C8400046E
:104AB00000B61C86000100BA1C2A000100BB1C2B9A
:104AC000000100BC1C2C000100C01C2D000800C906
:104AD000192E000100C11C2F000100C21C30000172
:104AE00000C31C31000100C41C32000100C51C338E
:104AF000000100C61C34000100C71C36000100D1B3
:104B00001938000100C81C39000100BF1C830002D5
:104B100000DC1C63000100E21964000100BD1C659B
:104B2000000100BE1C6D000100E31971000800C106
:104B30001966000100DB1C43000100CC1C4400028C
:104B400000CD1C45000100CF1C46000200D01C47D0
:104B5000000800DA1948000100D21C4B000100D304
:104B60001C04000100DE1CA1000100E11C37000153
:104B700000E01C88000100DF1C3C000100D2193D50
:104B8000000100C91C49000200D41C67000100E4B8
:104B9000194D000200D61C4E000100D81C4F000227
:104BA00000D91C3E000100D91951000100D319524F
:104BB000000100CA1C53000100CB1C54000100D4AA
:104BC000190000000000000001363601010001025A
:104BD00001000103010001040106060502000007AF
:104BE0000100340801000F090401010D0100FF0E4E
:104BF00008000017020000190100FF1A0100011B44
:104C00000100FE1C0100081D0200001F0100012020
:104C1000010001210200002301000F2402000026F0
:104C200001000127010008280200FF2A0100072BCC
:104C30000102402C0100002D0100012E0100012F76
:104C40000100FF30010B1D310800003A0100083B54
:104C500001000F3C0100013D0100FF3E0400004245
:104C6000040000460400004A0400004E0400005204
:104C7000040000560400005A0400000103710301FF
:104C800003010301030103010322030203010310D3
:104C900003000300030003000300030003000342BA
:104CA0000300032403060300030003040312032587
:104CB0000323032503230304030403000300030069
:104CC00003440300030003230300036503210035AD
:104CD0000381030003050300030003000300032511
:104CE00003230301017101010101011101010131DE
:104CF00001010101018001100161013B0014006309
:104D00000173017201620143010001130106013DBB
:104D1000013500040112010001000100010001043D
:104D2000010401330133013C01440132013600002A
:104D300001000165010001350081010001050182CA
:104D4000018301000103027102300160021102704F
:104D5000020102020202028002100261023A0041D4
:104D600000630273027202620243020002130238FD
:104D7000000002000204021202000200020002000F
:104D80000204020402370037003C024402000239E8
:104D900000000200026502000235028102000205E5
:104DA00002820283020002030471040204600411FF
:104DB00004700402040204010402041004610400EB
:104DC00004140463047304720462044304000413AF
:104DD0000406040004000404041204000400040097
:104DE00004000451046400000400040004440400AE
:104DF0000400040004000465040004350481046414
:104E00000005040004830400040300710030016005
:104E10000011007000310220035004800010006176
:104E20000000001400630073007200620043000081
:104E30000013000600000000000400120000000043
:104E4000000000000004000400370037003C02446A
:104E50000000000000000000006500000035008137
:104E6000000000050000008300000036000100067D
:104E70000000000F00000000000000000000000023
:104E80000003FFFF00000403FFFF0000FFFF0FF41B
:104E9000010005C4040320000100000B0000000015
:104EA0000000000003010F000000000000000000EF
:104EB00000000000000000000000000000000000F2
:104EC00000000000000000000000003839130096C8
:104ED000381F009C381F80A2380100383902001E9C
:104EE000380300243804002A380500303806003C16
:104EF0003830005A38310054383200663833006C8C
:104F000038350072383400783836007E3811008A1F
:104F1000381400903815004E38FFFF00000A0000DA
:104F20000002000000040000000800000010000063
:104F30000020000000400000008000000000010090
:104F40000000020000000400000008000000100043
:104F50000000200000004000000150420686420888
:104F600080420B9E42101A3F0AB04202564205741C
:104F700042075C420C38420D444264F23CFF0000A0
:104F800007ECFDFDFDECDCDCCCBCACAC9C9C8C7C73
:104F90007C6C6C5C5C5C4C4C3C3C2C2C1C1C03EA1C
:104FA000F5E5D5D5C5B5A595958585757565655521
:104FB0005545453535252515150500160F00000BFF
:104FC000150B020002220F3300000E5A696742657A
:104FD00065416C6C69616E636530390103050709D1
:104FE0000B0D0F00020406080A0C0D00011916181B
:104FF000161618230300303017181921301B1D1FF7
:1050000030303016181920231A1C1E3000393D3F4D
:10501000373C3C362C442D00034A49434E181A2590
:1050200005020C0E020B040B0A0708000F02040213
:10503000010101010902E803000000BE040A0000AA
:10504000E8030E0000007F001E1E05030300040499
:10505000010A0C0C08011E000C010903010C0508D3
:105060001508FFC082C08390193FE4F0A3F07C16BE
:105070007D1A7AAC7B18123482123D22123F6812DC
:105080003D2802660774F512251974F5122BBAE94A
:10509000FF8A08EBFE8C09E9705B74026A703E7946
:1050A0000812378E750A00780A122B13E509F50AE3
:1050B000780A122B13EEF50A780A122B139018C8EF
:1050C00012294F901CBAE0F97CDA7D19901CDC1291
:1050D00061D5123D4C7407122B220251AC74016A47
:1050E00060030251B1790812378E7B00EEFAF91293
:1050F0003D8E0251AC74016F600874026F60030250
:1051000051B1EA600574036A7047790212378E90D4
:105110001CBAE0F99018C8122DC5123D3AE9F89072
:1051200018D7E0A2E34010E9700D901943E004F0B5
:10513000640470031251CB740365087071901944B4
:10514000E0F9740129F0E9C3940540621251CB8063
:105150005D74016A705B74016F790A702E12378E6C
:105160007401122DF4E4F07402122DF47403F004AF
:10517000122DF4E4F0A3F0A3F0A3F07408122DF4C0
:10518000E4F0AA18AB19124262803612378E901CD6
:10519000B012294F7A007B20125C00122B22901C47
:1051A000BAE0F99018C8122DC5123D70E9F8E86010
:1051B0001090811712294F7A017B00125C00122B8C
:1051C00022740B122B227F030228019018C8E4F0EE
:1051D000A374F8F0A374FFF0A37407F02274F6121E
:1051E0002519E9FFEAFE7AD1F91232F68A828B8319
:1051F000E5824583702A7A027B001232D8EA4B702E
:105200000E7A107B009018CCE0F912331A80148AC1
:10521000828B8374D1F0EFA3F0EEF91232E48003B5
:10522000EFA3F002548F74F712251989089004D166
:10523000127796FF901C9DE0F47003A3E0F47031A8
:105240009005E2E0901C9DF0A3E4F080248E828F14
:1052500083A3126319600F8E828F83A3A312631638
:10526000FAA9081238068E828F831261DFE8FEE900
:10527000FFEE4F70D8901C9DE0F47003A3E0F46043
:105280000A901C9DE0FAA908123806124370901883
:1052900096125A2412436A7F0102280174F01225E3
:1052A00019890B8C0C7509007508007410122DF407
:1052B0001261DF7412122DF4126A04FD804712533A
:1052C00066F50EA3E0F50FAE08EE2EFEE433FFEA1E
:1052D0002EF582EB1266A7650E7004A3E0650F70D1
:1052E00019AE09EE2EFEE433FFEC2EF582ED3FF50C
:1052F00083E50EF0A3E50FF00509050AE50AC3955D
:105300000C40BB0508E508C3950B5005750A0080E5
:10531000EBA90980007F0802280174F4122519897D
:105320000B7D00740C122DF41261DF80010DEDC3B2
:10533000950B502E750A008002050AE50AC39C50A1
:10534000ECED25E0FEE433FFEA2EF582EB3F126B35
:10535000FC12536665087004A3E0650970DB7901EF
:10536000800279008014AE0AEE2EFEE433FFE82EB0
:10537000F582E9125BEA22122B227F0402280174D3
:10538000F412251974F8122BBA1266C27003A3E046
:1053900069707BAC18AD198E828B83A3A31261D583
:1053A00012408EE96401701E7407122DF4E064044B
:1053B00070387406122DF4E064CF700A7405122D53
:1053C000F4E0648C603D9018D8E4F0A3F0750AD541
:1053D000750B18780A122B0FAC08AD09EEFAEFFB2B
:1053E00012393E7402122B22803AE0645470D77452
:1053F00006122DF4E064EF70CD7405122DF4E06414
:105400004470C39018D8745FF0A3741180BE750AFD
:1054100002750B80780A122B0F7808122B0F12548A
:1054200078122B22740802537774F6122519EAFEBB
:10543000EBFF1255B7FCE439FD901896E06C700351
:10544000A3E06D70177508E27509187808122B0F24
:10545000EEFA1239447402122B22801A7508037571
:1054600009807808122B0F8A0889097808122B0FF7
:10547000125478122B228017EE240E125BE7FD7C6B
:10548000801266AF1239627404227402122B227FDA
:105490000202280174F612251974FE122BBAEAFED4
:1054A000EBFF851882851983E41255381267F5FBE6
:1054B000ECFA88828983A3A3E0F9750900750800D6
:1054C000600574FF697005750882803E901896E04B
:1054D0006A7003A3E06B701BAA18AB19124A2AE981
:1054E000FA851882851983126A0F70037508838AFA
:1054F0000980179019E5E060046401700575088162
:105500008008E0640270037508808518828519831D
:10551000126A04FDA908EEFAEFFB12394AE50960A8
:1055200014851882851983126A0F6009851882858F
:10553000198312702F02548AF0A3F012766F22742E
:10554000F2122519EAFEEBFF7508007509001255E5
:10555000B7F50AE439F50B124370EA650A7003EBFC
:10556000650B7012124A18E914F50879017A0B7B61
:1055700019124A128003750980EE240E1266A4F5F2
:105580000C780C122B13750C0B750D19780C122B53
:105590000F7808122B13780A122B0FE509F50878FB
:1055A00008122B131264A41266A4F97A057B8012E8
:1055B000395074070278D41255BB22EA2413F582BD
:1055C000E43FF583126F908882F583E0FAA3E0F858
:1055D000E4C8F9EA282274F6122519E9FF7E008052
:1055E000328A828B83E0F508A3E0F8E4C8F9E50885
:1055F00028E439F509EE25E0F8E433F9EC28F582E2
:10560000ED39F583E508F0A3E509F0EA2402FA5044
:10561000010B0EEEC39F40C902548F74E812251986
:1056200074FC122BBA8A168B177511007402122D96
:10563000F4E4F0A31267FD1255383517125BF8F544
:105640000B850A82F583127A3AFEE439FF850A82D5
:10565000850B83A3A3E0FA850A82850B83A3A3A30A
:10566000E0F9EAF508E439F509EEFAEFFB12440C2B
:10567000E964016016EEFAEFFB12440CE970389011
:105680001896E06E7003A3E06F602C1273D6122B95
:1056900013E4F508F5097808122B0F7808122B137C
:1056A0009018961229577508807808122B131259F2
:1056B000F2122B220259D1850A82850B83A3A3A360
:1056C000A3E0F510E50A2405F50A5002050BE510E4
:1056D000602812794B7402122DF4125A24740212AB
:1056E0002DF4126A0F60137402122DF41259E8A9F6
:1056F000101238368A0A8B0B8003751000850A82D7
:10570000850B831278E5602412794B851882851900
:1057100083EAF0A3EB126A15E849601085188285C8
:1057200019831259E8A90F1238368003750F0090BB
:1057300004D18052850A82850B83A3A3A3A3A3A3CC
:10574000A3A3E4F0A3F0AA0AAB0B8514828515830A
:10575000A3A3E0F8126316F91232E48512828513CE
:1057600083E0C0E0A811740B28F582E43419F583B6
:10577000D0E0F00511A2005007AA12AB131233803B
:10578000851482851583E0F514A3E0F515E514452D
:1057900015700302594E851482851583A31263196F
:1057A00060DE851482851583A3A3A3A3A3A3A3A36B
:1057B000E0A2E050CB851482851583A3A3A3A31296
:1057C0006A0F851482851583A3A3601E12631AFADB
:1057D0007901851482851583A3A3A3A31259DB1233
:1057E00027628A128B13D200800F1259DBA3A3A366
:1057F000E0F512A3E0F513C200E5124513700302B1
:105800005775851282851383A3E065087004A3E0B1
:105810006509600F74FF6508700474FF6509600313
:10582000025775851282851383A3A3A3A3A3A3A301
:10583000122957851282851383A3A3A3A3A3A3E0F0
:10584000FC7404122DF41261D5A9101238187402D8
:10585000122B22E9703C851282851383A3A3A3A394
:10586000A3A3A3A3A3A3122957851282851383A3FD
:10587000A3A3A3A3A3A3A3A3E0FC7402122DF41279
:1058800061D5A90F1238187402122B22E970030295
:105890005775E50F2510C333240AFA7B001232D85E
:1058A0008A0A8B0BEA4B700302575B8A828B8374E4
:1058B000D2126C068A828B83A3A3E8F0A3E9127844
:1058C000B4A3E510127A44E50FF0E510602CEA2449
:1058D0000AFAE4350BFB850A82850B83125A1F7482
:1058E00002122DF4125A12122B0BAC10EC2CFCE409
:1058F00033FD127108122B22800D8A828B83A3A3A1
:10590000A3A3A3E4F0A3F0E50F7003025734A8109B
:10591000E828F8E433F9E50A28F8E50B39F9E82432
:105920000AFAE439FB850A82850B83A3A3A3125AE2
:105930001F851882851983125A12122B0BAC0FEC9B
:105940002CFCE433FD127108122B22025746E5119C
:1059500060251273D6122B1375080B750919780878
:10596000122B0FE511F5087808122B1390189612D8
:1059700029577508008029EEFAEFFB12440CE970F4
:105980002A1273D6122B1375080B75091978081291
:105990002B0F7508007808122B13901896122957B0
:1059A0007808122B131259F2122B227402122DF4C2
:1059B000126A0F60087402122DF412702F8518827B
:1059C000851983126A0F6009851882851983127000
:1059D0002F7404122B227F100228011259DF22E0BB
:1059E000F8A3E0F583888222E0FCA3E0FDAA0AABDD
:1059F0000B22E5162402FCE43517FDE516240FF50D
:105A000082E43517F583E0F97A067B801239507409
:105A10000722E0F50CA3E0F50D750E00780C22A32B
:105A2000A3A3A3A3EAF0A3EBF02274F11225197447
:105A3000F4122BBA8A088B09ECFEEDFF740B122DC1
:105A4000F47403F0122B92123482126583740312E1
:105A50002B9212347CE9600A125BEF6010E0640163
:105A6000600B8518828519837484025B9B8E828FFC
:105A700083A3A3A3A3A3A3A3A3E06013F4601012C2
:105A80005BEF7016EE24141266A46003F4700B85AD
:105A900018828519837482025B9B12775AE0642115
:105AA0007002A3E06003025B72851882851983741B
:105AB0008CF0125BEF6003025B5C7401122B9AEEB8
:105AC000240BFAE43FFB124094E96003025B5C1292
